:1000000037110020130101803715024013058501C7
:1000100083250500B753000093835383B3E5750030
:100020002320B500371502401305C50183250500BF
:10003000B7032000B3E575002320B5003715014054
:1000400083250500B7F3FFFF9383F300B3F5750035
:10005000B7130000938303DDB3E575002320B500DB
:10006000371501401305054083250500B70310F03F
:100070009383F3FFB3F57500B703B008B3E57500DC
:100080002320B500371501401305C5408325050021
:1000900093030004B3E575002320B5003745014004
:1000A000130585808325050093031034B3E575009F
:1000B0002320B500374501401305C5808325050081
:1000C000B72300009383C300B3E575002320B50078
:1000D000371502401305050183250500B7032000ED
:1000E000B3E575002320B50093C3F3FFB3F57500A6
:1000F0002320B50037550040130545408315050002
:10010000930300FCB3F5750093038000B3E575001D
:100110002310B500375500401305C5418315050070
:10012000B7F3FFFFB3F5750093038002B3E57500E5
:100130002310B50037550040130505408315050011
:1001400093031000B3E575002310B5003755004048
:10015000130505408315050093030040B3E57500C2
:100160002310B500B70500209385C50023A0050026
:10017000EF00002E1301C1FF232061001303C00C08
:10018000EF00001603230100130141001301C1FF1A
:100190002320610013034004EF00000D032301003E
:1001A00013014100EF00C037370500201305450457
:1001B00083230500E39803FEEF0080291301C1FFAC
:1001C000232061001303C00CEF0080110323010002
:1001D000130141001301C1FF232061001303E00B51
:1001E000EF0080080323010013014100EF00C05D10
:1001F000EF008064370500201305C5048343050024
:10020000B70500209385C50003C3050033C3630011
:10021000631E0300EF00007FEF001018EF00402383
:10022000EF005050EF00006F6FF09FF4EF00806E12
:1002300013046004EF00903813041004EF0010382A
:1002400013049004EF0090371304C004EF0010373C
:100250001304D000EF0090361304A000EF00103616
:10026000EF00406B6FF0DFF0130101FF232011005E
:1002700023225100232431002326410093028000D1
:10028000930103001303100033F2610063160202AE
:10029000EF00C02593D111009382F2FFE39402FE98
:1002A0000322C100832181008322410083200100B9
:1002B0001301010167800000EF00002093D11100BD
:1002C0009382F2FFE39002FC0322C10083218100AC
:1002D0008322410083200100130101016780000097
:1002E000130101FF23201100232251002324310098
:1002F0002326410093028000EF008015370500207F
:10030000130585040322050063160204930103000C
:100310001303100033F2610063160202EF00001DA8
:1003200093D111009382F2FFE39402FE0322C100F5
:1003300083218100832241008320010013010101F8
:1003400067800000EF00401793D111009382F2FF05
:10035000E39002FC0322C10083218100832241003B
:10036000832001001301010167800000130101FFD8
:10037000232011002322A1002324B1002326710091
:10038000371501401305054083250500930300FF41
:10039000B3F5750093033000B3E575002320B50075
:1003A0008323C100832581000325410083200100B0
:1003B0001301010167800000130101FF23201100D8
:1003C0002322A1002324B100232671003715014008
:1003D0001305054083250500930300FFB3F5750061
:1003E00093034000B3E575002320B5008323C100CB
:1003F00083258100032541008320010013010101B1
:1004000067800000130101FF232011002322A100B7
:100410002324B100232671003715014013058540C0
:100420008325050093031000B3F575003705002000
:10043000130585042320B5008323C1008325810093
:1004400003254100832001001301010167800000A2
:100450001301C1FF23201100EFF05FF11301C1FF71
:10046000232061001303803EEF00005803230100A6
:1004700013014100EFF05FF41301C1FF232061007D
:100480001303800CEF0040560323010013014100C9
:10049000EFF05FF71301C1FF2320610013038025F4
:1004A000EF00805403230100130141008320010069
:1004B00013014100678000001301C1FF23201100D8
:1004C000EFF0DFEAEFF05FEF1301C1FF23206100DF
:1004D0001303800CEF00405103230100130141007E
:1004E0008320010013014100678000001301C1FF58
:1004F00023201100EFF09FE71301C1FF23206100CB
:1005000013036009EF00404E032301001301410073
:10051000EFF09FEA83200100130141006780000093
:10052000130101FF232011002322A1002324B10085
:1005300023267100370500201305450423200500FC
:10054000EFF0DFE2EFF05FE71301C1FF232061006E
:1005500013038002EF00404903230100130141000F
:1005600037150140130585408325050093031000CE
:10057000B3F5750037050020130545042320B500A9
:100580001301C1FF232061001303A000EF00C04549
:1005900003230100130141008323C100832581004F
:1005A0000325410083200100130101016780000041
:1005B000130181FE232011002322510023248100F6
:1005C0002326A1002328B100232A71009302800072
:1005D00013040000EFF09FD9EFF01FDE1301C1FFFD
:1005E0002320610013034001EF00004003230100BA
:1005F000130141003715014013058540832505008F
:1006000093031000B3F57500639C050413541400A4
:100610001301C1FF2320610013038002EF00C03CDF
:1006200003230100130141009382F2FFE39402FAD5
:100630001354840137050020130545042320850049
:1006400083234101832501010325C1000324810087
:100650008322410083200100130181016780000093
:10066000B703008013541400336474001301C1FFF6
:100670002320610013038002EF00003703230100F1
:10068000130141009382F2FFE39602F413548401B4
:1006900037050020130545042320850083234101ED
:1006A000832501010325C100032481008322410029
:1006B000832001001301810167800000130181FE86
:1006C0002320110023225100232481002326A1008E
:1006D0002328B100232A71009302000213040000B2
:1006E000EFF0DFC8EFF05FCD1301C1FF2320610001
:1006F00013038002EF00402F032301001301410088
:10070000371501401305854083250500930310002C
:10071000B3F57500639C0504135414001301C1FF65
:100720002320610013038002EF00002C032301004B
:10073000130141009382F2FFE39402FA13548401FF
:10074000370500201305450423208500832341013C
:10075000832501010325C100032481008322410078
:10076000832001001301810167800000B70300802E
:1007700013541400336474001301C1FF232061007B
:1007800013038002EF004026032301001301410000
:100790009382F2FFE39602F413548401370500209C
:1007A000130545042320850083234101832501018E
:1007B0000325C1000324810083224100832001001E
:1007C0001301810167800000130181FE23201100C5
:1007D00023225100232481002326A1002328B100D5
:1007E000232A7100930290001304000037050020B3
:1007F0001305C50413058500EFF09FDBB705002046
:100800009385450483830500230075001305F5FFD8
:100810009382F2FFE39202FE8323410183250101CB
:100820000325C100032481008322410083200100AD
:100830001301810167800000130101FE23201100D4
:100840002322310023244100232651002328610064
:10085000232A7100232CA100232EB100930300044E
:1008600093018000370500201305C504130585009A
:10087000B70500209385C5000342050093020000E0
:1008800033C34200137313006304030093C2821145
:1008900093D21200135212009383F3FF9381F1FF5E
:1008A000E39001FE23805500638C03001305F5FFE0
:1008B000930180000342050083C205006FF05FFCD6
:1008C0008325C10103258101832341010323010104
:1008D0008322C10003228100832141008320010083
:1008E0001301010267800000130181FF2320110022
:1008F0002322610037B33201130353401303F3FF84
:10090000E31E03FE03234100832001001301810045
:1009100067800000130181FF232011002322610062
:1009200037B31E001303A3B91303F3FFE31E03FE43
:100930000323410083200100130181006780000030
:10094000130181FF23201100232261001303A07DE6
:100950001303F3FFE31E03FE032341008320010082
:100960001301810067800000130181FF2320110023
:100970002322610037530000130343E81303F3FFFE
:10098000E31E03FE032341008320010013018100C5
:1009900067800000130181FF2320110023226100E2
:1009A00037930100130343891303F3FFE31E03FE90
:1009B00003234100832001001301810067800000B0
:1009C000130181FF232011002322610013039006ED
:1009D0001303F3FFE31E03FE032341008320010002
:1009E00013018100678000001301C1FF2320110063
:1009F0001303F3FFE31E03FE8320010013014100F4
:100A0000678000001301C1FC232011002322A100F4
:100A10002324B1002326C1002328D100232AE1008A
:100A2000232CF100232E51002320310223226102C6
:100A30002324410223268102232871023705002046
:100A40001305C50413058500834505001301C1FF87
:100A50002300B1001305F5FF83450500A300B10095
:100A60008355010013014100372600001306A686B6
:100A70009306000013070000930700009302000292
:100A80009301060093F11100639C0100EF008002C6
:100A90009382F2FFE39602FE131313006F00000A25
:100AA000EF00C0049382F2FFE39C02FC13131300D7
:100AB0006F00C0081301C1FF232011001356160058
:100AC00093D6160013020700137212006306020089
:100AD00037020080B3E64600135717001353130084
:100AE0008320010013014100678000001301C1FF52
:100AF000232011003307B7003334B700631A040210
:100B00001356160093D61600130207001372120034
:100B10006306020037020080B3E646001357170051
:100B2000135313008320010013014100678000006C
:100B3000B7030080336373006FF09FFC630403000E
:100B40001307030037050020130545022320E500A5
:100B500037050020130505022320D5008323010358
:100B60000324C102032281020323410283210102E3
:100B70008322C101832781010327410183260101CB
:100B80000326C10083258100032541008320010045
:100B90001301410367800000130101FE232E1100A1
:100BA000232CF100232AB100232881002326710081
:100BB000232451002322410023206100130200005E
:100BC0009302000093030000130400009307000049
:100BD000370500201305050203220500B7D39A3B11
:100BE000938303A033047240B3327200639802000F
:100BF00013020400938717006FF0DFFE938707034B
:100C0000370500201305C5042300F50093070000F5
:100C1000B7E3F5059383031033047240B3327200D7
:100C20006398020013020400938717006FF0DFFE41
:100C300093870703130515002300F50093070000B1
:100C4000B79398009383036833047240B332720001
:100C50006398020013020400938717006FF0DFFE11
:100C600093870703130515002300F5009307000081
:100C7000B7430F009383032433047240B3327200EE
:100C80006398020013020400938717006FF0DFFEE1
:100C900093870703130515002300F5009307000051
:100CA000B78301009383036A33047240B332720046
:100CB0006398020013020400938717006FF0DFFEB1
:100CC00093870703130515002300F5009307000021
:100CD000B72300009383037133047240B332720070
:100CE0006398020013020400938717006FF0DFFE81
:100CF00093870703130515002300F50093070000F1
:100D00009303803E33047240B33272006398020052
:100D100013020400938717006FF0DFFE9387070329
:100D2000130515002300F500930700009303400608
:100D300033047240B332720063980200130204005D
:100D4000938717006FF0DFFE9387070313051500E5
:100D50002300F500930700009303A00033047240C2
:100D6000B3327200639802001302040093871700E5
:100D70006FF0DFFE93870703130515002300F500CE
:100D800093070000930702009387070313051500DC
:100D90002300F50003230100032241008322810088
:100DA0008323C1000324010183254101832781019D
:100DB0008320C1011301010267800000130101FFBC
:100DC00023201100232271002324A1002326B10037
:100DD00037450140130505808325050093F5050877
:100DE000E38E05FC9303040037450140130545805D
:100DF0002300750037450140130505808325050054
:100E000093F50504E38805FE8325C10003258100D1
:100E1000832341008320010013010101678000004A
:100E20001301C1FF232011009386030093F6060FE0
:100E300093D6460013A7A600630A070093E60603AD
:100E400013840600EFF09FF76F000001938676038E
:100E500013840600EFF09FF69386030093F6F600E6
:100E600013A7A600630A070093E60603138406008F
:100E7000EFF0DFF46F000001938676031384060021
:100E8000EFF0DFF3832001001301410067800000D1
:100E90001301C1FE232011002322A100232461009D
:100EA0002326710023288100370500201305C5047F
:100EB0001303400083033500EFF09FF61305F5FFA1
:100EC0001303F3FFE31803FE1304D000EFF01FEF4A
:100ED0001304A000EFF09FEE370500201305C500B6
:100EE0001303400083033500EFF09FF31305F5FF74
:100EF0001303F3FFE31803FE1304D000EFF01FEC1D
:100F00001304A000EFF09FEB032401018323C10031
:100F100003238100032541008320010013014101C7
:100F200067800000130101FF232011002322A1008C
:100F30002324610023268100370500201305C50402
:100F4000130535001303700003040500EFF01FE7DD
:100F5000130515001303F3FF930350006308730296
:100F6000E31403FE1304D000EFF05FE51304A000C8
:100F7000EFF0DFE40324C1000323810003254100D7
:100F80008320010013010101678000001304E002C7
:100F9000EFF0DFE26FF0DFFC130101FF232011000F
:100FA0002322A1002324610023268100370500208D
:100FB0001305C5041303900003040500EFF01FE0C0
:100FC000130515001303F3FFE31803FE1304D00009
:100FD000EFF0DFDE1304A000EFF05FDE0324C100BA
:100FE0000323810003254100832001001301010137
:100FF000678000000000000000000000000000000A
:00000001FF
